{
  "_format": "hh-sol-artifact-1",
  "contractName": "SocialNetwork",
  "sourceName": "contracts/SocialNetwork.sol",
  "abi": [
    {
      "inputs": [],
      "stateMutability": "nonpayable",
      "type": "constructor"
    },
    {
      "anonymous": false,
      "inputs": [],
      "name": "NewLike",
      "type": "event"
    },
    {
      "anonymous": false,
      "inputs": [],
      "name": "NewPost",
      "type": "event"
    },
    {
      "anonymous": false,
      "inputs": [],
      "name": "NewUnlike",
      "type": "event"
    },
    {
      "inputs": [],
      "name": "getLastPostId",
      "outputs": [
        {
          "internalType": "uint256",
          "name": "",
          "type": "uint256"
        }
      ],
      "stateMutability": "view",
      "type": "function"
    },
    {
      "inputs": [
        {
          "internalType": "address",
          "name": "sender",
          "type": "address"
        }
      ],
      "name": "getLikedStates",
      "outputs": [
        {
          "internalType": "bool[]",
          "name": "",
          "type": "bool[]"
        }
      ],
      "stateMutability": "view",
      "type": "function"
    },
    {
      "inputs": [
        {
          "internalType": "uint256",
          "name": "_postId",
          "type": "uint256"
        }
      ],
      "name": "getPost",
      "outputs": [
        {
          "internalType": "address",
          "name": "poster",
          "type": "address"
        },
        {
          "internalType": "string",
          "name": "message",
          "type": "string"
        },
        {
          "internalType": "uint256",
          "name": "time",
          "type": "uint256"
        }
      ],
      "stateMutability": "view",
      "type": "function"
    },
    {
      "inputs": [],
      "name": "getTotalLikes",
      "outputs": [
        {
          "internalType": "uint256",
          "name": "",
          "type": "uint256"
        }
      ],
      "stateMutability": "view",
      "type": "function"
    },
    {
      "inputs": [
        {
          "internalType": "uint256",
          "name": "postId",
          "type": "uint256"
        }
      ],
      "name": "getTotalLikesbyPost",
      "outputs": [
        {
          "internalType": "uint256",
          "name": "",
          "type": "uint256"
        }
      ],
      "stateMutability": "view",
      "type": "function"
    },
    {
      "inputs": [
        {
          "internalType": "uint256",
          "name": "postId",
          "type": "uint256"
        }
      ],
      "name": "like",
      "outputs": [],
      "stateMutability": "nonpayable",
      "type": "function"
    },
    {
      "inputs": [
        {
          "internalType": "string",
          "name": "_message",
          "type": "string"
        }
      ],
      "name": "post",
      "outputs": [],
      "stateMutability": "nonpayable",
      "type": "function"
    },
    {
      "inputs": [
        {
          "internalType": "uint256",
          "name": "postId",
          "type": "uint256"
        }
      ],
      "name": "unlike",
      "outputs": [],
      "stateMutability": "nonpayable",
      "type": "function"
    }
  ],
  "bytecode": "0x608060405234801561001057600080fd5b5060008081905550600060018190555061161b8061002f6000396000f3fe608060405234801561001057600080fd5b50600436106100885760003560e01c80637e8c95ca1161005b5780637e8c95ca146101295780638ee93cf314610159578063d5ccb90914610175578063e82935da1461019357610088565b80630f4fa71d1461008d578063104b7918146100bd57806340731c24146100db57806374d21ae01461010d575b600080fd5b6100a760048036038101906100a29190610cf4565b6101af565b6040516100b49190610d30565b60405180910390f35b6100c56102d4565b6040516100d29190610d30565b60405180910390f35b6100f560048036038101906100f09190610cf4565b6102de565b60405161010493929190610e1c565b60405180910390f35b61012760048036038101906101229190610cf4565b61060e565b005b610143600480360381019061013e9190610e86565b6107d4565b6040516101509190610f7d565b60405180910390f35b610173600480360381019061016e91906110d4565b610946565b005b61017d610a63565b60405161018a9190610d30565b60405180910390f35b6101ad60048036038101906101a89190610cf4565b610a6c565b005b6000806003600084815260200190815260200160002080548060200260200160405190810160405280929190818152602001828054801561024557602002820191906000526020600020905b8160009054906101000a900473ffffffffffffffffffffffffffffffffffffffff1673ffffffffffffffffffffffffffffffffffffffff16815260200190600101908083116101fb575b505050505090506000805b82518110156102c957600073ffffffffffffffffffffffffffffffffffffffff168382815181106102845761028361111d565b5b602002602001015173ffffffffffffffffffffffffffffffffffffffff16146102b65781806102b29061117b565b9250505b80806102c19061117b565b915050610250565b508092505050919050565b6000600154905090565b60006060600080600090505b6002805490508110156104525761043f6002828154811061030e5761030d61111d565b5b906000526020600020906004020160030154600283815481106103345761033361111d565b5b906000526020600020906004020160000160009054906101000a900473ffffffffffffffffffffffffffffffffffffffff166002848154811061037a5761037961111d565b5b90600052602060002090600402016001018054610396906111f2565b80601f01602080910402602001604051908101604052809291908181526020018280546103c2906111f2565b801561040f5780601f106103e45761010080835404028352916020019161040f565b820191906000526020600020905b8154815290600101906020018083116103f257829003601f168201915b5050505050600285815481106104285761042761111d565b5b906000526020600020906004020160020154610bb8565b808061044a9061117b565b9150506102ea565b5060005b6002805490508110156105cb5784600282815481106104785761047761111d565b5b906000526020600020906004020160030154036105b857600281815481106104a3576104a261111d565b5b906000526020600020906004020160000160009054906101000a900473ffffffffffffffffffffffffffffffffffffffff16600282815481106104e9576104e861111d565b5b90600052602060002090600402016001016002838154811061050e5761050d61111d565b5b90600052602060002090600402016002015481805461052c906111f2565b80601f0160208091040260200160405190810160405280929190818152602001828054610558906111f2565b80156105a55780601f1061057a576101008083540402835291602001916105a5565b820191906000526020600020905b81548152906001019060200180831161058857829003601f168201915b5050505050915093509350935050610607565b80806105c39061117b565b915050610456565b506040517f08c379a00000000000000000000000000000000000000000000000000000000081526004016105fe9061126f565b60405180910390fd5b9193909250565b60005b6002805490508110156107955781600282815481106106335761063261111d565b5b9060005260206000209060040201600301540361078257600060036000848152602001908152602001600020905060005b818054905081101561077f573373ffffffffffffffffffffffffffffffffffffffff1682828154811061069a5761069961111d565b5b9060005260206000200160009054906101000a900473ffffffffffffffffffffffffffffffffffffffff1673ffffffffffffffffffffffffffffffffffffffff160361076c578181815481106106f3576106f261111d565b5b9060005260206000200160006101000a81549073ffffffffffffffffffffffffffffffffffffffff0219169055600160008154809291906107339061128f565b91905055507f92accfec0a77c50502d4204e7f1e1bb6010cf99bd8dd964dc95d7f5f3125b89160405160405180910390a15050506107d1565b80806107779061117b565b915050610664565b50505b808061078d9061117b565b915050610611565b506040517f08c379a00000000000000000000000000000000000000000000000000000000081526004016107c89061126f565b60405180910390fd5b50565b60606000805467ffffffffffffffff8111156107f3576107f2610fa9565b5b6040519080825280602002602001820160405280156108215781602001602082028036833780820191505090505b5090506000600190505b600054811161093c5760006003600083815260200190815260200160002080549050905060005b81811015610927578573ffffffffffffffffffffffffffffffffffffffff166003600085815260200190815260200160002082815481106108965761089561111d565b5b9060005260206000200160009054906101000a900473ffffffffffffffffffffffffffffffffffffffff1673ffffffffffffffffffffffffffffffffffffffff1603610914576001846001856108ec91906112b8565b815181106108fd576108fc61111d565b5b602002602001019015159081151581525050610927565b808061091f9061117b565b915050610852565b505080806109349061117b565b91505061082b565b5080915050919050565b6000808154809291906109589061117b565b9190505550600260405180608001604052803373ffffffffffffffffffffffffffffffffffffffff168152602001838152602001428152602001600054815250908060018154018082558091505060019003906000526020600020906004020160009091909190915060008201518160000160006101000a81548173ffffffffffffffffffffffffffffffffffffffff021916908373ffffffffffffffffffffffffffffffffffffffff1602179055506020820151816001019081610a1d9190611498565b50604082015181600201556060820151816003015550507f2fd62d00186ef15df84fb6fd7cecdbb4bcfd6c0aed7264f1361db1716db84b7f60405160405180910390a150565b60008054905090565b60005b600280549050811015610b79578160028281548110610a9157610a9061111d565b5b90600052602060002090600402016003015403610b665760036000838152602001908152602001600020339080600181540180825580915050600190039060005260206000200160009091909190916101000a81548173ffffffffffffffffffffffffffffffffffffffff021916908373ffffffffffffffffffffffffffffffffffffffff16021790555060016000815480929190610b2f9061117b565b91905055507f2bb9e66c3614d4a7e81ae01f9b2989cad0b384c68552f47bf1c837fbaa399e7b60405160405180910390a150610bb5565b8080610b719061117b565b915050610a6f565b506040517f08c379a0000000000000000000000000000000000000000000000000000000008152600401610bac9061126f565b60405180910390fd5b50565b610c5484848484604051602401610bd2949392919061156a565b6040516020818303038152906040527f46826b5d000000000000000000000000000000000000000000000000000000007bffffffffffffffffffffffffffffffffffffffffffffffffffffffff19166020820180517bffffffffffffffffffffffffffffffffffffffffffffffffffffffff8381831617835250505050610c5a565b50505050565b610c7181610c69610c74610c95565b63ffffffff16565b50565b60006a636f6e736f6c652e6c6f679050600080835160208501845afa505050565b610ca0819050919050565b610ca86115b6565b565b6000604051905090565b600080fd5b600080fd5b6000819050919050565b610cd181610cbe565b8114610cdc57600080fd5b50565b600081359050610cee81610cc8565b92915050565b600060208284031215610d0a57610d09610cb4565b5b6000610d1884828501610cdf565b91505092915050565b610d2a81610cbe565b82525050565b6000602082019050610d456000830184610d21565b92915050565b600073ffffffffffffffffffffffffffffffffffffffff82169050919050565b6000610d7682610d4b565b9050919050565b610d8681610d6b565b82525050565b600081519050919050565b600082825260208201905092915050565b60005b83811015610dc6578082015181840152602081019050610dab565b60008484015250505050565b6000601f19601f8301169050919050565b6000610dee82610d8c565b610df88185610d97565b9350610e08818560208601610da8565b610e1181610dd2565b840191505092915050565b6000606082019050610e316000830186610d7d565b8181036020830152610e438185610de3565b9050610e526040830184610d21565b949350505050565b610e6381610d6b565b8114610e6e57600080fd5b50565b600081359050610e8081610e5a565b92915050565b600060208284031215610e9c57610e9b610cb4565b5b6000610eaa84828501610e71565b91505092915050565b600081519050919050565b600082825260208201905092915050565b6000819050602082019050919050565b60008115159050919050565b610ef481610edf565b82525050565b6000610f068383610eeb565b60208301905092915050565b6000602082019050919050565b6000610f2a82610eb3565b610f348185610ebe565b9350610f3f83610ecf565b8060005b83811015610f70578151610f578882610efa565b9750610f6283610f12565b925050600181019050610f43565b5085935050505092915050565b60006020820190508181036000830152610f978184610f1f565b905092915050565b600080fd5b600080fd5b7f4e487b7100000000000000000000000000000000000000000000000000000000600052604160045260246000fd5b610fe182610dd2565b810181811067ffffffffffffffff8211171561100057610fff610fa9565b5b80604052505050565b6000611013610caa565b905061101f8282610fd8565b919050565b600067ffffffffffffffff82111561103f5761103e610fa9565b5b61104882610dd2565b9050602081019050919050565b82818337600083830152505050565b600061107761107284611024565b611009565b90508281526020810184848401111561109357611092610fa4565b5b61109e848285611055565b509392505050565b600082601f8301126110bb576110ba610f9f565b5b81356110cb848260208601611064565b91505092915050565b6000602082840312156110ea576110e9610cb4565b5b600082013567ffffffffffffffff81111561110857611107610cb9565b5b611114848285016110a6565b91505092915050565b7f4e487b7100000000000000000000000000000000000000000000000000000000600052603260045260246000fd5b7f4e487b7100000000000000000000000000000000000000000000000000000000600052601160045260246000fd5b600061118682610cbe565b91507fffffffffffffffffffffffffffffffffffffffffffffffffffffffffffffffff82036111b8576111b761114c565b5b600182019050919050565b7f4e487b7100000000000000000000000000000000000000000000000000000000600052602260045260246000fd5b6000600282049050600182168061120a57607f821691505b60208210810361121d5761121c6111c3565b5b50919050565b7f506f7374206e6f7420666f756e64000000000000000000000000000000000000600082015250565b6000611259600e83610d97565b915061126482611223565b602082019050919050565b600060208201905081810360008301526112888161124c565b9050919050565b600061129a82610cbe565b9150600082036112ad576112ac61114c565b5b600182039050919050565b60006112c382610cbe565b91506112ce83610cbe565b92508282039050818111156112e6576112e561114c565b5b92915050565b60008190508160005260206000209050919050565b60006020601f8301049050919050565b600082821b905092915050565b60006008830261134e7fffffffffffffffffffffffffffffffffffffffffffffffffffffffffffffffff82611311565b6113588683611311565b95508019841693508086168417925050509392505050565b6000819050919050565b600061139561139061138b84610cbe565b611370565b610cbe565b9050919050565b6000819050919050565b6113af8361137a565b6113c36113bb8261139c565b84845461131e565b825550505050565b600090565b6113d86113cb565b6113e38184846113a6565b505050565b5b81811015611407576113fc6000826113d0565b6001810190506113e9565b5050565b601f82111561144c5761141d816112ec565b61142684611301565b81016020851015611435578190505b61144961144185611301565b8301826113e8565b50505b505050565b600082821c905092915050565b600061146f60001984600802611451565b1980831691505092915050565b6000611488838361145e565b9150826002028217905092915050565b6114a182610d8c565b67ffffffffffffffff8111156114ba576114b9610fa9565b5b6114c482546111f2565b6114cf82828561140b565b600060209050601f83116001811461150257600084156114f0578287015190505b6114fa858261147c565b865550611562565b601f198416611510866112ec565b60005b8281101561153857848901518255600182019150602085019450602081019050611513565b868310156115555784890151611551601f89168261145e565b8355505b6001600288020188555050505b505050505050565b600060808201905061157f6000830187610d21565b61158c6020830186610d7d565b818103604083015261159e8185610de3565b90506115ad6060830184610d21565b95945050505050565b7f4e487b7100000000000000000000000000000000000000000000000000000000600052605160045260246000fdfea26469706673582212207ff823e5d2d3243b150905ffb126dcbbf73299df2a28f7f6f4ab0801d550dc7764736f6c63430008130033",
  "linkReferences": {},
  "deployedLinkReferences": {}
}