{
  "_format": "hh-sol-artifact-1",
  "contractName": "SocialNetwork",
  "sourceName": "contracts/SocialNetwork.sol",
  "abi": [
    {
      "inputs": [],
      "stateMutability": "nonpayable",
      "type": "constructor"
    },
    {
      "anonymous": false,
      "inputs": [
        {
          "indexed": false,
          "internalType": "address",
          "name": "poster",
          "type": "address"
        },
        {
          "indexed": false,
          "internalType": "string",
          "name": "message",
          "type": "string"
        },
        {
          "indexed": false,
          "internalType": "uint256",
          "name": "timestamp",
          "type": "uint256"
        },
        {
          "indexed": false,
          "internalType": "uint256",
          "name": "likes",
          "type": "uint256"
        },
        {
          "indexed": true,
          "internalType": "uint256",
          "name": "id",
          "type": "uint256"
        }
      ],
      "name": "NewPost",
      "type": "event"
    },
    {
      "inputs": [],
      "name": "getLastPostId",
      "outputs": [
        {
          "internalType": "uint256",
          "name": "",
          "type": "uint256"
        }
      ],
      "stateMutability": "view",
      "type": "function"
    },
    {
      "inputs": [
        {
          "internalType": "uint256",
          "name": "_postId",
          "type": "uint256"
        }
      ],
      "name": "getPost",
      "outputs": [
        {
          "internalType": "address",
          "name": "poster",
          "type": "address"
        },
        {
          "internalType": "string",
          "name": "message",
          "type": "string"
        },
        {
          "internalType": "uint256",
          "name": "time",
          "type": "uint256"
        },
        {
          "internalType": "uint256",
          "name": "totalLikes",
          "type": "uint256"
        }
      ],
      "stateMutability": "view",
      "type": "function"
    },
    {
      "inputs": [
        {
          "internalType": "uint256",
          "name": "_postId",
          "type": "uint256"
        }
      ],
      "name": "like",
      "outputs": [],
      "stateMutability": "nonpayable",
      "type": "function"
    },
    {
      "inputs": [
        {
          "internalType": "string",
          "name": "_message",
          "type": "string"
        }
      ],
      "name": "post",
      "outputs": [],
      "stateMutability": "nonpayable",
      "type": "function"
    },
    {
      "inputs": [
        {
          "internalType": "uint256",
          "name": "_postId",
          "type": "uint256"
        }
      ],
      "name": "unlike",
      "outputs": [],
      "stateMutability": "nonpayable",
      "type": "function"
    }
  ],
  "bytecode": "0x608060405234801561001057600080fd5b50600080819055506111a2806100276000396000f3fe608060405234801561001057600080fd5b50600436106100575760003560e01c806340731c241461005c57806374d21ae01461008f5780638ee93cf3146100ab578063d5ccb909146100c7578063e82935da146100e5575b600080fd5b61007660048036038101906100719190610944565b610101565b6040516100869493929190610a51565b60405180910390f35b6100a960048036038101906100a49190610944565b610485565b005b6100c560048036038101906100c09190610bd2565b610554565b005b6100cf610697565b6040516100dc9190610c1b565b60405180910390f35b6100ff60048036038101906100fa9190610944565b6106a0565b005b6000606060008060005b6001805490508110156102a15761023a6001828154811061012f5761012e610c36565b5b9060005260206000209060050201600401546001838154811061015557610154610c36565b5b906000526020600020906005020160000160009054906101000a900473ffffffffffffffffffffffffffffffffffffffff166001848154811061019b5761019a610c36565b5b906000526020600020906005020160010180546101b790610c94565b80601f01602080910402602001604051908101604052809291908181526020018280546101e390610c94565b80156102305780601f1061020557610100808354040283529160200191610230565b820191906000526020600020905b81548152906001019060200180831161021357829003601f168201915b505050505061076f565b61028e6001828154811061025157610250610c36565b5b9060005260206000209060050201600301546001838154811061027757610276610c36565b5b90600052602060002090600502016002015461080e565b808061029990610cf4565b91505061010b565b5060005b6001805490508110156104425785600182815481106102c7576102c6610c36565b5b9060005260206000209060050201600401540361042f57600181815481106102f2576102f1610c36565b5b906000526020600020906005020160000160009054906101000a900473ffffffffffffffffffffffffffffffffffffffff166001828154811061033857610337610c36565b5b90600052602060002090600502016001016001838154811061035d5761035c610c36565b5b9060005260206000209060050201600201546001848154811061038357610382610c36565b5b9060005260206000209060050201600301548280546103a190610c94565b80601f01602080910402602001604051908101604052809291908181526020018280546103cd90610c94565b801561041a5780601f106103ef5761010080835404028352916020019161041a565b820191906000526020600020905b8154815290600101906020018083116103fd57829003601f168201915b5050505050925094509450945094505061047e565b808061043a90610cf4565b9150506102a5565b506040517f08c379a000000000000000000000000000000000000000000000000000000000815260040161047590610d88565b60405180910390fd5b9193509193565b60005b6001805490508110156105155781600182815481106104aa576104a9610c36565b5b9060005260206000209060050201600401540361050257600181815481106104d5576104d4610c36565b5b906000526020600020906005020160030160008154809291906104f790610da8565b919050555050610551565b808061050d90610cf4565b915050610488565b506040517f08c379a000000000000000000000000000000000000000000000000000000000815260040161054890610d88565b60405180910390fd5b50565b60008081548092919061056690610cf4565b919050555060016040518060a001604052803373ffffffffffffffffffffffffffffffffffffffff16815260200183815260200142815260200160008152602001600054815250908060018154018082558091505060019003906000526020600020906005020160009091909190915060008201518160000160006101000a81548173ffffffffffffffffffffffffffffffffffffffff021916908373ffffffffffffffffffffffffffffffffffffffff16021790555060208201518160010190816106329190610f7d565b5060408201518160020155606082015181600301556080820151816004015550506000547f53e56b0eeb04237a48cf0812d192eb12fa7ee286cdd4612a720066b75f067922338342600060405161068c949392919061108a565b60405180910390a250565b60008054905090565b60005b6001805490508110156107305781600182815481106106c5576106c4610c36565b5b9060005260206000209060050201600401540361071d57600181815481106106f0576106ef610c36565b5b9060005260206000209060050201600301600081548092919061071290610cf4565b91905055505061076c565b808061072890610cf4565b9150506106a3565b506040517f08c379a000000000000000000000000000000000000000000000000000000000815260040161076390610d88565b60405180910390fd5b50565b610809838383604051602401610787939291906110d6565b6040516020818303038152906040527f63cb41f9000000000000000000000000000000000000000000000000000000007bffffffffffffffffffffffffffffffffffffffffffffffffffffffff19166020820180517bffffffffffffffffffffffffffffffffffffffffffffffffffffffff83818316178352505050506108aa565b505050565b6108a68282604051602401610824929190611114565b6040516020818303038152906040527ff666715a000000000000000000000000000000000000000000000000000000007bffffffffffffffffffffffffffffffffffffffffffffffffffffffff19166020820180517bffffffffffffffffffffffffffffffffffffffffffffffffffffffff83818316178352505050506108aa565b5050565b6108c1816108b96108c46108e5565b63ffffffff16565b50565b60006a636f6e736f6c652e6c6f679050600080835160208501845afa505050565b6108f0819050919050565b6108f861113d565b565b6000604051905090565b600080fd5b600080fd5b6000819050919050565b6109218161090e565b811461092c57600080fd5b50565b60008135905061093e81610918565b92915050565b60006020828403121561095a57610959610904565b5b60006109688482850161092f565b91505092915050565b600073ffffffffffffffffffffffffffffffffffffffff82169050919050565b600061099c82610971565b9050919050565b6109ac81610991565b82525050565b600081519050919050565b600082825260208201905092915050565b60005b838110156109ec5780820151818401526020810190506109d1565b60008484015250505050565b6000601f19601f8301169050919050565b6000610a14826109b2565b610a1e81856109bd565b9350610a2e8185602086016109ce565b610a37816109f8565b840191505092915050565b610a4b8161090e565b82525050565b6000608082019050610a6660008301876109a3565b8181036020830152610a788186610a09565b9050610a876040830185610a42565b610a946060830184610a42565b95945050505050565b600080fd5b600080fd5b7f4e487b7100000000000000000000000000000000000000000000000000000000600052604160045260246000fd5b610adf826109f8565b810181811067ffffffffffffffff82111715610afe57610afd610aa7565b5b80604052505050565b6000610b116108fa565b9050610b1d8282610ad6565b919050565b600067ffffffffffffffff821115610b3d57610b3c610aa7565b5b610b46826109f8565b9050602081019050919050565b82818337600083830152505050565b6000610b75610b7084610b22565b610b07565b905082815260208101848484011115610b9157610b90610aa2565b5b610b9c848285610b53565b509392505050565b600082601f830112610bb957610bb8610a9d565b5b8135610bc9848260208601610b62565b91505092915050565b600060208284031215610be857610be7610904565b5b600082013567ffffffffffffffff811115610c0657610c05610909565b5b610c1284828501610ba4565b91505092915050565b6000602082019050610c306000830184610a42565b92915050565b7f4e487b7100000000000000000000000000000000000000000000000000000000600052603260045260246000fd5b7f4e487b7100000000000000000000000000000000000000000000000000000000600052602260045260246000fd5b60006002820490506001821680610cac57607f821691505b602082108103610cbf57610cbe610c65565b5b50919050565b7f4e487b7100000000000000000000000000000000000000000000000000000000600052601160045260246000fd5b6000610cff8261090e565b91507fffffffffffffffffffffffffffffffffffffffffffffffffffffffffffffffff8203610d3157610d30610cc5565b5b600182019050919050565b7f506f7374206e6f7420666f756e64000000000000000000000000000000000000600082015250565b6000610d72600e836109bd565b9150610d7d82610d3c565b602082019050919050565b60006020820190508181036000830152610da181610d65565b9050919050565b6000610db38261090e565b915060008203610dc657610dc5610cc5565b5b600182039050919050565b60008190508160005260206000209050919050565b60006020601f8301049050919050565b600082821b905092915050565b600060088302610e337fffffffffffffffffffffffffffffffffffffffffffffffffffffffffffffffff82610df6565b610e3d8683610df6565b95508019841693508086168417925050509392505050565b6000819050919050565b6000610e7a610e75610e708461090e565b610e55565b61090e565b9050919050565b6000819050919050565b610e9483610e5f565b610ea8610ea082610e81565b848454610e03565b825550505050565b600090565b610ebd610eb0565b610ec8818484610e8b565b505050565b5b81811015610eec57610ee1600082610eb5565b600181019050610ece565b5050565b601f821115610f3157610f0281610dd1565b610f0b84610de6565b81016020851015610f1a578190505b610f2e610f2685610de6565b830182610ecd565b50505b505050565b600082821c905092915050565b6000610f5460001984600802610f36565b1980831691505092915050565b6000610f6d8383610f43565b9150826002028217905092915050565b610f86826109b2565b67ffffffffffffffff811115610f9f57610f9e610aa7565b5b610fa98254610c94565b610fb4828285610ef0565b600060209050601f831160018114610fe75760008415610fd5578287015190505b610fdf8582610f61565b865550611047565b601f198416610ff586610dd1565b60005b8281101561101d57848901518255600182019150602085019450602081019050610ff8565b8683101561103a5784890151611036601f891682610f43565b8355505b6001600288020188555050505b505050505050565b6000819050919050565b600061107461106f61106a8461104f565b610e55565b61090e565b9050919050565b61108481611059565b82525050565b600060808201905061109f60008301876109a3565b81810360208301526110b18186610a09565b90506110c06040830185610a42565b6110cd606083018461107b565b95945050505050565b60006060820190506110eb6000830186610a42565b6110f860208301856109a3565b818103604083015261110a8184610a09565b9050949350505050565b60006040820190506111296000830185610a42565b6111366020830184610a42565b9392505050565b7f4e487b7100000000000000000000000000000000000000000000000000000000600052605160045260246000fdfea264697066735822122049acedc677203061c15ffff3b36a4cfc5c1593f833a3f78791b58ec064b75f9064736f6c63430008130033",
  "linkReferences": {},
  "deployedLinkReferences": {}
}